:100000000C942A000C943F000C943F000C943F0089
:100010000C943F000C943F000C943F000C943F0064
:100020000C943F000C943F000C943F000C943F0054
:100030000C943F000C943F000C943F000C943F0044
:100040000C943F000C943F000C943F000C943F0034
:100050000C943F0011241FBECFE5D8E0DEBFCDBF1A
:1000600010E0A0E6B0E0ECE4F1E002C005900D92F3
:10007000A436B107D9F70E9476000C94A4000C9422
:100080000000E0916000F09161008FEF8083E091CB
:100090006200F091630080830895CF93DF9300D0D6
:1000A00000D0CDB7DEB71A82198214C01C821B8221
:1000B00006C02B813C812F5F3F4F3C832B832B81DC
:1000C0003C81283E3340ACF329813A812F5F3F4F7A
:1000D0003A83298329813A81281739073CF30F9005
:1000E0000F900F900F90DF91CF9108950E944100E3
:1000F00010E027C0E0916200F091630020E1129FC0
:10010000C00111248B60808384E190E00E944D0047
:10011000E0916200F091630020E1D29FC0011124C0
:100120008760808384E190E00E944D00CF5F01C032
:10013000C0E0CA30F8F2DF5F01C0D0E0DA30C0F3CF
:0C0140001F5F1A30D0F3D4CFF894FFCF2B
:04014C003400350046
:00000001FF
