S0200000556E6974375F4C6573736F6E315F41737369676E6D656E742E73726563B1
S11300000C942A000C943F000C943F000C943F0085
S11300100C943F000C943F000C943F000C943F0060
S11300200C943F000C943F000C943F000C943F0050
S11300300C943F000C943F000C943F000C943F0040
S11300400C943F000C943F000C943F000C943F0030
S11300500C943F0011241FBECFE5D8E0DEBFCDBF16
S113006010E0A0E6B0E0EEE4F2E002C005900D92EC
S1130070A636B107D9F70E94B1000C9425010C945F
S11300800000CF93DF9300D000D0CDB7DEB71A8243
S1130090198214C01C821B8206C02B813C812F5FF5
S11300A03F4F3C832B832B813C81283E3340ACF370
S11300B029813A812F5F3F4F3A83298329813A81ED
S11300C0281739073CF30F900F900F900F90DF9192
S11300D0CF910895E0916400F09165008081806182
S11300E08083E0916200F09163008081806180836D
S11300F0E0916400F0916500808180628083E091EA
S11301006200F0916300808180628083E0916400EA
S1130110F0916500808180648083E0916200F091B9
S11301206300808180648083E0916400F0916500C5
S1130130808180688083E0916200F0916300808117
S113014080688083E0916400F09165008081816023
S11301508083E0916200F091630080818E7F8083D0
S113016008950E946A00E0916400F0916500808126
S11301708F7E8083E0916400F091650080818F7DA3
S11301808083E0916400F091650080818F7B80839F
S1130190E0916400F091650080818F778083C1E0F5
S11301A0D5E0E0916000F0916100808180FF47C05C
S11301B0C11146C0E0916400F091650080818F7E9A
S11301C08083E0916400F091650080818F7D80835D
S11301D0E0916400F091650080818F7B8083E091E1
S11301E06400F091650080818F778083D83090F42B
S11301F0E0916000F0916100208181E090E00D2E9B
S113020002C0880F991F0A94E2F7822B8083DF5F74
S1130210C1E016C0E0916400F091650080818061C6
S1130220808384EF91E00E944100E0916400F091AA
S1130230650080818F7E8083C1E0D5E001C0C0E08D
S11102408AE090E00E944100ACCFF894FFCF1A
S109024E30003100320013
S9030000FC
