S01700004763634170706C69636174696F6E312E737265635B
S11300000C942A000C94BC000C94E0000C940401A1
S11300100C943F000C943F000C943F000C943F0060
S11300200C943F000C943F000C943F000C943F0050
S11300300C943F000C943F000C943F000C943F0040
S11300400C943F000C943F000C943F000C943F0030
S11300500C943F0011241FBECFE5D8E0DEBFCDBF16
S113006010E0A0E6B0E0E4E5F2E002C005900D92F5
S1130070AC36B107D9F70E94A4000C9428010C9463
S11300800000E0916A00F0916B0080818B7F808397
S1130090E0916A00F0916B008081877F8083E0911A
S11300A06A00F0916B00808180628083E0916A0035
S11300B0F0916B00808180648083E0916A00F0910C
S11300C06B00808180688083E0916800F091690012
S11300D0808181608083E0916800F0916900808173
S11300E08D7F8083E0916800F09169008081846055
S11300F08083E0916800F09169008081886080834A
S1130100E0916600F091670080818F7B8083E091AD
S11301106400F0916500808180628083E0916400D6
S1130120F0916500808180648083E0916400F091A7
S11301306500808180688083E0916200F0916300B3
S113014080818068808308950E944100E09160006E
S1130150F091610080818F7D8083E0916000F09157
S1130160610080818F7B8083E0916000F091610069
S113017080818F778083EACF1F920F920FB60F9200
S113018011242F938F939F93EF93FF93E09160003B
S1130190F09161008081806280832FEF80E792E09C
S11301A0215080409040E1F700C00000FF91EF91A2
S11301B09F918F912F910F900FBE0F901F901895C4
S11301C01F920F920FB60F9211242F938F939F9328
S11301D0EF93FF93E0916000F0916100808180646F
S11301E080832FEF80E792E0215080409040E1F738
S11301F000C00000FF91EF919F918F912F910F907C
S11302000FBE0F901F9018951F920F920FB60F926A
S113021011242F938F939F93EF93FF93E0916000AA
S1130220F09161008081806880832FEF80E792E005
S1130230215080409040E1F700C00000FF91EF9111
S11302409F918F912F910F900FBE0F901F90189533
S1070250F894FFCF4C
S10F025432005F005B00540055003100D4
S9030000FC
