S016000053656374696F6E315F5461736B312E73726563E5
S11300000C942A000C943F000C943F000C943F0085
S11300100C943F000C943F000C943F000C943F0060
S11300200C943F000C943F000C943F000C943F0050
S11300300C943F000C943F000C943F000C943F0040
S11300400C943F000C943F000C943F000C943F0030
S11300500C943F0011241FBECFE5D8E0DEBFCDBF16
S113006010E0A0E6B0E0E2E3F3E002C005900D92F8
S1130070A638B107D9F70E9414010C9497010C9487
S11300800000CF93DF9300D000D0CDB7DEB71A8243
S1130090198214C01C821B8206C02B813C812F5FF5
S11300A03F4F3C832B832B813C81283E3340ACF370
S11300B029813A812F5F3F4F3A83298329813A81ED
S11300C0281739073CF30F900F900F900F90DF9192
S11300D0CF910895E0916E00F0916F008FEF8083CF
S11300E0E0917000F091710010820895E0916A002F
S11300F0F0916B008FEF8083E0916C00F0916D00C4
S113010010820895E0916600F09167008FEF80837C
S1130110E0916800F091690080830895E0916200A5
S1130120F091630080818E7F8083E0916400F09180
S1130130650080818E7F8083E0916200F09163008E
S113014080818D7F8083E0916400F09165008081DF
S11301508D7F8083E0916200F091630080818B7FCA
S11301608083E0916400F091650080818B7F8083BF
S1130170E0916200F09163008081877F8083E09149
S11301806400F09165008081877F80830895CF9318
S1130190DF93C0E0D0E014C0E0917000F0917100F2
S11301A0208181E090E00C2E02C0880F991F0A94F0
S11301B0E2F7822780838AE090E00E944100219642
S11301C0C830D1054CF3219714C0E0917000F09130
S11301D07100208181E090E00C2E02C0880F991FED
S11301E00A94E2F7822780838AE090E00E9441002B
S11301F02197DD2354F7DF91CF9108958A3091053B
S113020060F4A0916800B0916900880F991FFC0107
S1130210EE58FF4F80818C930895E0916800F0912F
S113022069008FE7808308950E946A000E94760027
S11302300E9482000E948E00C0E0D0E010E0F12C09
S113024000E0DD24D394E12C01C010E0E0916000D3
S1130250F0916100808180FD0E94C700E091600000
S1130260F0916100808181FF19C0011125C0E091E6
S11302707000F0917100208181E090E00E2C02C0AA
S1130280880F991F0A94E2F782278083ED0C87E098
S11302908E1534F0EE2064F001E00EC000E00CC0D6
S11302A001E0DD24DA940F2EF7E0EF2EF02D04C0E8
S11302B001E0DD24D394E12CE0916000F091610031
S11302C0808182FF11C0F11015C05E018FEFA81A62
S11302D0B80ACE010E94FE008AE0A816B10431F0EB
S11302E0E501FF24F39406C0F12C04C0C0E0D0E083
S11302F0FF24F394E0916000F0916100808183FF1A
S1130300A4CF1111A3CFE0916C00F0916D00808116
S11303108160808382E390E00E944100E0916C0060
S1130320F0916D0080818E7F808311E08FCFF894EF
S1050330FFCFF9
S113033230003100320034003500370038003A0012
S11303423B003F0006005B004F0066006D007D002D
S109035207007F006F00AC
S9030000FC
