:100000000C942A000C943F000C943F000C943F0089
:100010000C943F000C943F000C943F000C943F0064
:100020000C943F000C943F000C943F000C943F0054
:100030000C943F000C943F000C943F000C943F0044
:100040000C943F000C943F000C943F000C943F0034
:100050000C943F0011241FBECFE5D8E0DEBFCDBF1A
:1000600010E0A0E6B0E0E4E8F0E102C005900D92F7
:10007000AE3BB107D9F70E941A020C9440080C94C9
:10008000000081B3806F81BB81B3807F81BB8FEF24
:1000900082BB08950F931F93CF93DF9340E050E00E
:1000A00056C032B3E4E6F0E081E090E08C010080DD
:1000B00002C0000F111F0A94E2F7EC01018002C098
:1000C000CC0FDD1F0A94E2F7DC01028002C0AA0F08
:1000D000BB1F0A94E2F7BC01038002C0660F771FC2
:1000E0000A94E2F72C2F202B2A2B262B232B22BB22
:1000F00022B3FA01EC59FF4F008002C0880F991F0C
:100100000A94E2F78095822382BB20E030E01AC097
:1001100080B390E0F901E05AFF4F008002C095954E
:1001200087950A94E2F780FD0BC0220F331F220F40
:10013000331F28593F4FF901E40FF51F80810CC090
:100140002F5F3F4F243031051CF34F5F5F4F44302A
:1001500051050CF4A6CF8EE4DF91CF911F910F9142
:10016000089588B3886088BB87E893E10197F1F729
:1001700000C0000088B3877F88BB08958AB38F7062
:100180008ABB88B3846088BB88B3857F88BB0E94A4
:10019000B1000E94B1008AB3806F8ABB88B38B7FA5
:1001A00088BB0895CF93C82F0E94BE008BB38F7079
:1001B0009C2F907F892B8BBB88B3897F88BB0E9443
:1001C000B1002BB330E1C39FC0011124922F9F7067
:1001D000892B8BBB88B3897F88BB0E94B100CF91EC
:1001E000089581E00E94D200089587B38E6087BB96
:1001F00087E893E10197F1F700C0000088B3817FA1
:1002000088BB8FEF8ABB87E893E10197F1F700C0C5
:1002100000000E94F10082E00E94D20088E20E9469
:10022000D20086E00E94D20080E80E94D2008FE0D7
:100230000E94D2000895811107C0603168F480E8FF
:10024000860F0E94D2000895813031F4603120F48D
:1002500080EC860F0E94D2000895CF93C82F0E9491
:10026000BE0088B3826088BB8BB38F709C2F907F59
:10027000892B8BBB88B38B7F88BB88B3826088BB9C
:100280000E94B1002BB330E1C39FC0011124922F13
:100290009F70892B8BBB88B38B7F88BB88B38260B0
:1002A00088BB0E94B100CF9108950F931F93CF9305
:1002B0008C01C0E015C0CF5F0F5F1F4F0E942D0162
:1002C000C03129F460E081E00E941B0109C0C03206
:1002D00038F00E94F10060E080E00E941B01C0E065
:1002E000F80180818111E7CFCF911F910F9108957F
:1002F0000F931F93CF93DF93CDB7DEB72F970FB632
:10030000F894DEBF0FBECDBF9F938F938FE790E031
:100310009F938F938E010F5F1F4F1F930F930E9428
:100320005605C8010E9455010F900F900F900F9035
:100330000F900F902F960FB6F894DEBF0FBECDBF73
:10034000DF91CF911F910F9108958F929F92AF925D
:10035000BF92CF92DF92EF92FF920F931F93CF93B2
:10036000DF93CDB7DEB760970FB6F894DEBF0FBE50
:10037000CDBF6B017C0120E030E0A9010E948A031F
:1003800088231CF408E710E002C009EA10E020E02E
:1003900030E0A901C701B6010E948A03882324F432
:1003A000F7FAF094F7F8F094C701B6010E9401043F
:1003B0004B015C01072E000C880B990B0E9439043D
:1003C0009B01AC01C701B6010E941D0320E030E093
:1003D00048EC52E40E94E9040E9401047F936F9369
:1003E0009F928F921F930F938AE790E09F938F9332
:1003F0008E010F5F1F4F1F930F930E945605C80178
:100400000E9455010FB6F894DEBF0FBECDBF6096B7
:100410000FB6F894DEBF0FBECDBFDF91CF911F9115
:100420000F91FF90EF90DF90CF90BF90AF909F9093
:100430008F9008950E94F5000E94410083ED90E3A3
:100440000197F1F700C0000082E890E00E9455019A
:100450000E94F10089E990E00E9455018FE493EC3D
:100460000197F1F700C000000E94F1008AEA90E0D5
:100470000E94550160E081E00E941B0180EB90E04A
:100480000E9455019FE926E881E09150204080407C
:10049000E1F700C000000E94F100C12CD12CA12C7A
:1004A000B12C00E010E0E12CF12CD0E00E944A00D9
:1004B000C82FD03121F460E081E00E941B01D032CE
:1004C00030F00E94F100D12C00E010E0D0E0CE34FA
:1004D00069F3CF3621F0CD3309F05FC00AC00E9426
:1004E000F100A12CB12C00E010E0E12CF12CD0E0C7
:1004F000DDCF10161106D4F6DD20C1F28C2F0E943C
:100500002D019BE2D91669F09D1520F02AE2D21642
:10051000A1F034C08DE2D81651F09FE2D916B9F09F
:100520002DC0C7018A0D9B1D0E94780127C0C701FD
:100530008A199B090E94780121C0EA9CC001EB9CAA
:10054000900DFA9C900D11240E94780117C0B701FC
:100550000F2C000C880B990B0E9439042B013C01D5
:10056000B501BB0C880B990B0E9439049B01AC01AF
:10057000C301B2010E948F030E94A501DE5F8BE7D9
:1005800092E90197F1F700C00000CC24C394D12C6C
:10059000A12CB12C00E010E089CF80ED8C0F8A30C7
:1005A000A0F591E0C91204C00E94F100C12CD0E076
:1005B000003111050CF07ACF8C2F0E942D0101150E
:1005C000110539F48C2F90E05C0120E3A21AB108E8
:1005D00012C0B501660F771FC501880F991F880FDC
:1005E000991F880F991F5B01A80EB91E8C2F90E0F0
:1005F000C097A80EB91E0F5F1F4FDF5F83E294EF15
:100600000197F1F700C0000051CF101611060CF051
:100610004DCFDD2039F06D2F6F708D2F82958F704B
:100620000E941B018C2F0E942D01DF5FDC2E7501C3
:10063000A12CB12C00E010E039CF5058BB27AA27DD
:100640000E9435030C94AF040E94A10438F00E946C
:10065000A80420F039F49F3F19F426F40C949E046A
:100660000EF4E095E7FB0C949804E92F0E94C00477
:1006700058F3BA17620773078407950720F079F4D7
:10068000A6F50C94E2040EF4E0950B2EBA2FA02DE3
:100690000B01B90190010C01CA01A0011124FF272F
:1006A000591B99F0593F50F4503E68F11A16F0402A
:1006B000A22F232F342F4427585FF3CF4695379529
:1006C0002795A795F0405395C9F77EF41F16BA0BEE
:1006D000620B730B840BBAF09150A1F0FF0FBB1F9C
:1006E000661F771F881FC2F70EC0BA0F621F731FE5
:1006F000841F48F4879577956795B795F7959E3F42
:1007000008F0B0CF9395880F08F09927EE0F9795D2
:10071000879508950E94740408F481E008950E946A
:10072000A3030C94AF040E94A80458F00E94A104F3
:1007300040F029F45F3F29F00C94980451110C9477
:10074000E3040C949E040E94C00468F39923B1F35F
:10075000552391F3951B550BBB27AA2762177307E7
:10076000840738F09F5F5F4F220F331F441FAA1F7B
:10077000A9F335D00E2E3AF0E0E832D09150504037
:10078000E695001CCAF72BD0FE2F29D0660F771FE5
:10079000881FBB1F261737074807AB07B0E809F0CB
:1007A000BB0B802DBF01FF2793585F4F3AF09E3F50
:1007B000510578F00C9498040C94E3045F3FE4F343
:1007C000983ED4F3869577956795B795F7959F5F93
:1007D000C9F7880F911D9695879597F90895E1E0DF
:1007E000660F771F881FBB1F621773078407BA073E
:1007F00020F0621B730B840BBA0BEE1F88F7E09599
:1008000008950E9408046894B1110C94E3040895BB
:100810000E94C80488F09F5798F0B92F9927B751C4
:10082000B0F0E1F0660F771F881F991F1AF0BA9594
:10083000C9F714C0B13091F00E94E204B1E008950C
:100840000C94E204672F782F8827B85F39F0B93FFE
:10085000CCF3869577956795B395D9F73EF4909547
:100860008095709561957F4F8F4F9F4F0895E894C5
:1008700009C097FB3EF490958095709561957F4FE8
:100880008F4F9F4F9923A9F0F92F96E9BB27939596
:10089000F695879577956795B795F111F8CFFAF4A6
:1008A000BB0F11F460FF1BC06F5F7F4F8F4F9F4FD7
:1008B00016C0882311F096E911C0772321F09EE835
:1008C000872F762F05C0662371F096E8862F70E09B
:1008D00060E02AF09A95660F771F881FDAF7880F75
:1008E0009695879597F90895990F0008550FAA0BCB
:1008F000E0E8FEEF16161706E807F907C0F0121633
:100900001306E407F50798F0621B730B840B950B35
:1009100039F40A2661F0232B242B252B21F408958A
:100920000A2609F4A140A6958FEF811D811D089527
:1009300097F99F6780E870E060E008959FEF80EC92
:10094000089500240A941616170618060906089535
:1009500000240A9412161306140605060895092E9B
:100960000394000C11F4882352F0BB0F40F4BF2B0A
:1009700011F460FF04C06F5F7F4F8F4F9F4F08954A
:1009800057FD9058440F551F59F05F3F71F0479540
:10099000880F97FB991F61F09F3F79F08795089525
:1009A000121613061406551FF2CF4695F1DF08C044
:1009B000161617061806991FF1CF86957105610561
:1009C00008940895E894BB2766277727CB0197F909
:1009D00008950E94FC040C94AF040E94A10438F016
:1009E0000E94A80420F0952311F00C9498040C9414
:1009F0009E0411240C94E3040E94C00470F3959F9C
:100A0000C1F3950F50E0551F629FF001729FBB2705
:100A1000F00DB11D639FAA27F00DB11DAA1F649FA1
:100A20006627B00DA11D661F829F2227B00DA11D54
:100A3000621F739FB00DA11D621F839FA00D611DDA
:100A4000221F749F3327A00D611D231F849F600DFB
:100A5000211D822F762F6A2F11249F5750409AF024
:100A6000F1F088234AF0EE0FFF1FBB1F661F771FB0
:100A7000881F91505040A9F79E3F510580F00C947B
:100A800098040C94E3045F3FE4F3983ED4F3869516
:100A900077956795B795F795E7959F5FC1F7FE2B1B
:100AA000880F911D9695879597F90895AEE0B0E06F
:100AB000ECE5F5E00C9417080D891E8986E08C831F
:100AC0001A8309838FEF9FE79E838D83AE01475E74
:100AD0005F4F6F89788DCE0101960E947805EF8176
:100AE000F885E00FF11F10822E96E4E00C94330895
:100AF000ABE0B0E0EEE7F5E00C9409086C017B0197
:100B00008A01FC0117821682838181FFCCC1CE014C
:100B100001963C01F6019381F70193FD859193FFC6
:100B200081917F01882309F4BAC1853239F493FD9C
:100B3000859193FF81917F01853229F4B60190E080
:100B40000E946F07E7CF912C212C312CFFE1F31588
:100B5000D8F08B3279F038F4803279F08332A1F416
:100B6000232D20611DC08D3261F0803369F4232D67
:100B7000216016C0832D8260382EE32DE4603E2E66
:100B80002AC0F32DF8601DC037FC2DC020ED280FC2
:100B90002A3040F08E32B9F436FC81C1232D206416
:100BA000322E19C036FE06C08AE0989E200D112410
:100BB000922E11C0EAE02E9E200D1124222EF32D3C
:100BC000F0623F2E08C08C3621F4832D8068382EC9
:100BD00002C0883641F4F70193FD859193FF81911E
:100BE0007F018111B3CF982F9F7D9554933028F4C6
:100BF0000C5F1F4F9FE399830DC0833631F083371D
:100C000071F0833509F059C021C0F80180818983D2
:100C10000E5F1F4F88248394912C530113C0280129
:100C2000F2E04F0E511CF801A080B18036FE03C0E7
:100C3000692D70E002C06FEF7FEFC5010E9464076D
:100C40004C018201F32DFF773F2E16C0280122E0D0
:100C5000420E511CF801A080B18036FE03C0692D00
:100C600070E002C06FEF7FEFC5010E9459074C0191
:100C7000F32DF0683F2E820133FC1BC0822D90E0E3
:100C800088169906B0F4B60180E290E00E946F07E2
:100C90002A94F4CFF50137FC859137FE81915F01ED
:100CA000B60190E00E946F0721102A9421E0821A79
:100CB00091088114910471F7E8C0843611F08936E7
:100CC00041F5F80137FE07C060817181828193810F
:100CD0000C5F1F4F08C060817181072E000C880BCC
:100CE000990B0E5F1F4FF32DFF763F2E97FF09C024
:100CF00090958095709561957F4F8F4F9F4FF068CD
:100D00003F2E2AE030E0A3010E94AB07882E861810
:100D100045C0853731F4232D2F7EB22E2AE030E0F6
:100D200025C0932D997FB92E8F36C1F018F48835E0
:100D300079F0B5C0803719F0883721F0B0C0E92FBD
:100D4000E061BE2EB4FE0DC0FB2DF460BF2E09C0C5
:100D500034FE0AC0292F2660B22E06C028E030E0FB
:100D600005C020E130E002C020E132E0F801B7FE2A
:100D700007C060817181828193810C5F1F4F06C023
:100D80006081718180E090E00E5F1F4FA3010E949F
:100D9000AB07882E8618FB2DFF773F2E36FE0DC041
:100DA000232D2E7FA22E891458F434FE0BC032FC62
:100DB00009C0832D8E7EA82E05C0B82CA32C03C09D
:100DC000B82C01C0B92CA4FE0FC0FE01E80DF11D26
:100DD0008081803321F49A2D997EA92E09C0A2FE2C
:100DE00006C0B394B39404C08A2D867809F0B394F6
:100DF000A3FC11C0A0FE06C0B21488F4280C922CEB
:100E00009B180EC0B21460F4B60180E290E00E941C
:100E10006F07B394F7CFB21418F42B1802C0982CB4
:100E2000212CA4FE10C0B60180E390E00E946F0761
:100E3000A2FE17C0A1FC03C088E790E002C088E5CD
:100E400090E0B6010CC08A2D867859F0A1FE02C050
:100E50008BE201C080E2A7FC8DE2B60190E00E9427
:100E60006F07891438F4B60180E390E00E946F07A1
:100E70009A94F7CF8A94F301E80DF11D8081B601B1
:100E800090E00E946F078110F5CF222009F442CE36
:100E9000B60180E290E00E946F072A94F6CFF60137
:100EA0008681978102C08FEF9FEF2B96E2E10C9431
:100EB0002508FC010590615070400110D8F780951D
:100EC00090958E0F9F1F0895FC0161507040019016
:100ED0000110D8F7809590958E0F9F1F08950F935E
:100EE0001F93CF93DF93FB01238121FD03C08FEF7D
:100EF0009FEF2CC022FF16C0468157812481358187
:100F00004217530744F4A081B1819D012F5F3F4FE9
:100F1000318320838C93268137812F5F3F4F378326
:100F2000268314C08B01EC01FB010084F185E02DC8
:100F30000995892BE1F6D80116968D919C9117970A
:100F4000019617969C938E931697CE01DF91CF91C1
:100F50001F910F910895FA01AA27283051F12031ED
:100F600081F1E8946F936E7F6E5F7F4F8F4F9F4F3D
:100F7000AF4FB1E03ED0B4E03CD0670F781F891F7F
:100F80009A1FA11D680F791F8A1F911DA11D6A0F4D
:100F9000711D811D911DA11D20D009F468943F9100
:100FA0002AE0269F11243019305D3193DEF6CF01FF
:100FB0000895462F4770405D4193B3E00FD0C9F7C5
:100FC000F6CF462F4F70405D4A3318F0495D31FD32
:100FD0004052419302D0A9F7EACFB4E0A695979585
:100FE000879577956795BA95C9F70097610571055B
:100FF00008959B01AC010A2E0694579547953795A5
:101000002795BA95C9F7620F731F841F951FA01DFE
:1010100008952F923F924F925F926F927F928F929C
:101020009F92AF92BF92CF92DF92EF92FF920F9377
:101030001F93CF93DF93CDB7DEB7CA1BDB0B0FB681
:10104000F894DEBF0FBECDBF09942A88398848883E
:101050005F846E847D848C849B84AA84B984C884D4
:10106000DF80EE80FD800C811B81AA81B981CE0FCB
:10107000D11D0FB6F894DEBF0FBECDBFED010895B0
:04108000F894FFCF12
:1010840000010203040506073738392F3435362AA0
:101094003132332D6F303D2B2D00257325642E25E1
:1010A400640048656C6C6F2C2049276D20416E6488
:1010B400726577204164656C0020202043616C6375
:1010C400756C61746F7220202000456E7465720027
:0E10D40043616C63756C6174696F6E3A000065
:00000001FF
